:100000000C945D000C9485000C9485000C94850084
:100010000C9485000C9485000C9485000C9485004C
:100020000C9485000C9485000C9485000C9485003C
:100030000C9485000C9485000C9485000C9485002C
:100040000C9451030C9485000C941F030C94F9023A
:100050000C9485000C9485000C9485000C9485000C
:100060000C9485000C9485000000000024002700FB
:100070002A0000000000250028002B0004040404CE
:100080000404040402020202020203030303030342
:10009000010204081020408001020408102001021F
:1000A00004081020000000080002010000030407FB
:1000B00000000000000000002A0611241FBECFEF40
:1000C000D8E0DEBFCDBF11E0A0E0B1E0EEECF1E1A1
:1000D00002C005900D92AE33B107D9F721E0AEE32F
:1000E000B1E001C01D92AC3EB207E1F710E0CDE5F2
:1000F000D0E004C02197FE010E94DF08CC35D10773
:10010000C9F70E949B030C94E5080C940000EDEAEB
:10011000F0E02491E9E9F0E09491E5E8F0E0E49181
:10012000EE23C9F0222339F0233001F1A8F4213065
:1001300019F1223029F1F0E0EE0FFF1FEE58FF4FCA
:10014000A591B4912FB7F894EC91811126C09095A8
:100150009E239C932FBF08952730A9F02830C9F023
:10016000243049F7209180002F7D03C0209180002A
:100170002F7720938000DFCF24B52F7724BDDBCFEE
:1001800024B52F7DFBCF2091B0002F772093B000B6
:10019000D2CF2091B0002F7DF9CF9E2BDACFAF9236
:1001A000BF92CF92DF92EF92FF920F931F93CF9364
:1001B000DF936C017B018B01040F151FEB015E01C6
:1001C000AE18BF08C017D10759F06991D601ED915B
:1001D000FC910190F081E02DC6010995892B79F7FA
:1001E000C501DF91CF911F910F91FF90EF90DF90AC
:1001F000CF90BF90AF900895FC01538D448D252F73
:1002000030E0842F90E0821B930B541710F0CF96B0
:10021000089501970895FC01918D828D981761F0E2
:10022000A28DAE0FBF2FB11D5D968C91928D9F5FF9
:100230009F73928F90E008958FEF9FEF0895FC01D8
:10024000918D828D981731F0828DE80FF11D858D8B
:1002500090E008958FEF9FEF0895FC01918D228D1E
:10026000892F90E0805C9F4F821B91098F739927A3
:1002700008958FE491E00E942D0121E0892B09F47B
:1002800020E0822F089580E090E0892B29F00E94E1
:10029000390181110C9400000895FC01A48DA80F70
:1002A000B92FB11DA35ABF4F2C91848D90E00196B8
:1002B0008F739927848FA689B7892C93A089B189D8
:1002C0008C91837080648C93938D848D981306C079
:1002D0000288F389E02D80818F7D80830895EF92DD
:1002E000FF920F931F93CF93DF93EC0181E0888FF0
:1002F0009B8D8C8D98131AC0E889F989808185FFC0
:1003000015C09FB7F894EE89FF896083E889F98961
:1003100080818370806480839FBF81E090E0DF9163
:10032000CF911F910F91FF90EF900895F62E0B8DB6
:1003300010E00F5F1F4F0F731127E02E8C8D8E1171
:100340000CC00FB607FCFACFE889F989808185FFD8
:10035000F5CFCE010E944D01F1CFEB8DEC0FFD2FBB
:10036000F11DE35AFF4FF0829FB7F8940B8FEA8993
:10037000FB8980818062CFCFCF93DF93EC01888DA2
:100380008823B9F0AA89BB89E889F9898C9185FD10
:1003900003C0808186FD0DC00FB607FCF7CF8C919E
:1003A00085FFF2CF808185FFEDCFCE010E944D0108
:1003B000E9CFDF91CF9108953FB7F8948091430141
:1003C00090914401A0914501B091460126B5A89BAA
:1003D00005C02F3F19F00196A11DB11D3FBFBA2FD7
:1003E000A92F982F8827BC01CD01620F711D811D97
:1003F000911D42E0660F771F881F991F4A95D1F71C
:100400000895CF92DF92EF92FF92CF936B017C0120
:10041000AC019B016EEF7FEF81E090E00E949308BA
:100420009B01AC0160E074E284EF90E00E94A308BD
:10043000C0E0EC2FF0E0EE0FFF1FED5DFE4F80817E
:100440009181CF5F82179307A0F3A7019601220F36
:10045000331F441F551FEC2FF0E0EE0FFF1FED5D23
:10046000FE4FA081B1810E94D4089B01AC0160E0E5
:1004700074E284EF90E00E94A308309387002093F9
:10048000860080918100887FC770C82BC09381004F
:1004900081E0CF91FF90EF90DF90CF9008958F9201
:1004A0009F92AF92BF92CF92DF92EF92FF920F9303
:1004B0001F93CF936B017C01AEEFB1E0AC019B01C8
:1004C0000E94D4089B01AC0160E074E284EF90E0EC
:1004D0000E94A308C901C0E0CC0CDD1CEE1CFF1C6F
:1004E000812C44E2942E44EFA42EB12CCF5FEC2F4C
:1004F000F0E0EE0FFF1FED5EFE4F00811181081747
:100500001907A0F3D801A70196010E94D4089B0106
:10051000AC01C501B4010E94A308C8012F3F3105F9
:1005200009F020F72093B3008091B100887FC77055
:10053000C82BC093B10081E0CF911F910F91FF9024
:10054000EF90DF90CF90BF90AF909F908F900895E5
:10055000FC0101900020E9F73197AF01481B590BCE
:10056000BC018FE491E00C94CF008F929F92AF92E8
:10057000BF920F931F93CF93DF93CDB7DEB7A197B1
:100580000FB6F894DEBF0FBECDBF19A2423008F4FB
:100590004AE08E010F5D1F4F842E912CB12CA12CAF
:1005A000A50194010E94A308E62FB901CA01EA300F
:1005B000F4F4E05DD801EE938D01232B242B252B41
:1005C00079F790E080E0109719F0CD010E94A80221
:1005D000A1960FB6F894DEBF0FBECDBFDF91CF91CD
:1005E0001F910F91BF90AF909F908F900895E95CFD
:1005F000E1CF1F920F920FB60F9211242F933F93CA
:100600004F935F936F937F938F939F93AF93BF931A
:10061000EF93FF938FE491E00E944D01FF91EF91E2
:10062000BF91AF919F918F917F916F915F914F910A
:100630003F912F910F900FBE0F901F9018951F9212
:100640000F920FB60F9211242F938F939F93EF93D6
:10065000FF93E0915F01F09160018081E09165017D
:10066000F091660182FD1BC09081809168018F5FCF
:100670008F7320916901821741F0E0916801F0E0E9
:10068000E15BFE4F958F80936801FF91EF919F9101
:100690008F912F910F900FBE0F901F901895808112
:1006A000F4CF1F920F920FB60F9211242F933F9306
:1006B0008F939F93AF93BF9380913F01909140019F
:1006C000A0914101B091420130913E0123E0230FFE
:1006D0002D3758F50196A11DB11D20933E01809341
:1006E0003F0190934001A0934101B093420180915A
:1006F000430190914401A0914501B09146010196BA
:10070000A11DB11D8093430190934401A093450125
:10071000B0934601BF91AF919F918F913F912F91DF
:100720000F900FBE0F901F90189526E8230F02968A
:10073000A11DB11DD2CF789484B5826084BD84B5EB
:10074000816084BD85B5826085BD85B5816085BDCC
:1007500080916E00816080936E0010928100809184
:10076000810082608093810080918100816080930C
:100770008100809180008160809380008091B10031
:1007800084608093B1008091B00081608093B0005C
:1007900080917A00846080937A0080917A008260F0
:1007A00080937A0080917A00816080937A008091B2
:1007B0007A00806880937A001092C100E0915F0116
:1007C000F091600182E08083E0915B01F0915C0137
:1007D0001082E0915D01F0915E018FEC80831092B8
:1007E0006701E0916301F091640186E08083E0910C
:1007F0006101F0916201808180618083E0916101FB
:10080000F0916201808188608083E0916101F091C4
:100810006201808180688083E0916101F0916201D2
:1008200080818F7D808310920001809180008C7F79
:100830008093800080918100877E80618093810019
:1008400064EF71E080E090E00E9401028091B000CE
:100850008C7F81608093B0008091B100886080932C
:10086000B10064EF71E080E090E00E944F025DEA29
:10087000252E50E0352EF10184919DEF980F923096
:1008800008F0EAC060E573EC80E090E00E940102AD
:1008900000E010E080910001F0E48F9FC00111247E
:1008A00080937C0080917A00806480937A008091AC
:1008B0007A0086FDFCCF8091780060917900762FD8
:1008C000682F072E000C880B990B0E946C079B0168
:1008D000AC0168E579E384E392E40E94570620E0E6
:1008E00030E040E251E40E9421086B017C0120913C
:1008F0004B0130914C0140914D0150914E010E94AD
:1009000058069B01AC0120934B0130934C0140935E
:100910004D0150934E01C701B6010E94580620E0D8
:1009200038EE44E955E40E9458066B017C0120E052
:100930003FEF4FE757E40E941C0818160CF496C0CE
:10094000C0924701D0924801E0924901F0924A01D9
:1009500020E030E0A9016091470170914801809149
:10096000490190914A010E94C40687FF0CC080E0B3
:1009700090E0A0E8BFE38093470190934801A093E3
:100980004901B0934A0120E03FEF4FE757E46091FF
:100990004701709148018091490190914A010E945C
:1009A000C9066B017C014B015C01AC019B010E94FB
:1009B0008E08882309F467C08FE291E00E94A802A4
:1009C0008BE391E00E94A802609147017091480179
:1009D0008091490190914A010E943B079B01E9E9FE
:1009E000F0E0F490E5E8F0E08491882399F090E05D
:1009F000880F991FFC01E859FF4FA591B491FC01A4
:100A0000EE58FF4FC591D4918FB7F8949C919F29D0
:100A10009C938FBF6115710509F0C9C080E00E94E9
:100A200087000E94DC016B017C010E94DC016C19D3
:100A30007D098E099F09683E734081059105A8F3E1
:100A40000115110509F426CF0E943901882309F404
:100A500021CF0E9400001ECF883009F019CF60E539
:100A600073EC80E090E00E944F0212CF80E09FEF95
:100A7000AFE7B7E48093470190934801A093490101
:100A8000B0934A0165CF26013701E89477F82FEF3C
:100A90003FEF4FE75FE7C301B2010E948E0881116B
:100AA0000DC02FEF3FEF4FE75FE7C301B2010E9498
:100AB000C40618161CF483E391E080CF2FEF3FEFBC
:100AC0004FE75FE4C701B6010E941C0818161CF42A
:100AD00087E391E073CF2FEF3FEF4FE75FECC70164
:100AE000B6010E94C40687FDF3CF20E030E0A901E3
:100AF000C701B6010E94C40687FF0BC06DE28FE4F8
:100B000091E00E946F0146015701B7FAB094B7F81F
:100B1000B0942AE037ED43EA5BE3C501B4010E94DB
:100B200058064B015C010E943B076B017C010E944F
:100B30006A079B01AC01C501B4010E9457064B0135
:100B40005C014AE0C701B6010E94B5026EE28FE483
:100B500091E00E946F0120E030E040E251E4C501E5
:100B6000B4010E9421084B015C010E943B076B010C
:100B7000F12CE12C4AE0C701B6010E94B502C70181
:100B8000B6010E946A079B01AC01C501B4010E9435
:100B9000570620E030E040E251E40E9421080E9424
:100BA0003B0790E080E04AE00E94B50209CF6F3F2A
:100BB000760711F481E033CFF1018491833041F164
:100BC00038F48230A1F06038710508F427CFF2CFF5
:100BD0008430A1F18830B9F78091B00080628093B1
:100BE000B000A091B300B0E0C4EBD0E007C084B582
:100BF000806284BDA7B5B0E0C8E4D0E00E94C5081B
:100C00002FEF3FEF40E050E00E94A308288309CF78
:100C100080918000806880938000A0918600B091D0
:100C20008700C8E8D0E00E94C5082FEF3FEF40E002
:100C300050E00E94A30839832883F3CE809180007E
:100C4000806280938000A0918600B0918700CAE8FE
:100C5000D0E0E9CFEFE4F1E01382128288EE93E076
:100C6000A0E0B0E084839583A683B78385E091E01C
:100C70009183808385EC90E09587848784EC90E075
:100C80009787868780EC90E0918B808B81EC90E059
:100C9000938B828B82EC90E0958B848B86EC90E03A
:100CA000978B868B118E128E138E148E089550584A
:100CB000BB27AA270E946F060C94E2070E94D40764
:100CC00038F00E94DB0720F039F49F3F19F426F436
:100CD0000C94D1070EF4E095E7FB0C94CB07E92FB9
:100CE0000E94F30758F3BA17620773078407950742
:100CF00020F079F4A6F50C9415080EF4E0950B2E6F
:100D0000BA2FA02D0B01B90190010C01CA01A0015D
:100D10001124FF27591B99F0593F50F4503E68F1B8
:100D20001A16F040A22F232F342F4427585FF3CFF9
:100D3000469537952795A795F0405395C9F77EF4CA
:100D40001F16BA0B620B730B840BBAF09150A1F013
:100D5000FF0FBB1F661F771F881FC2F70EC0BA0F99
:100D6000621F731F841F48F4879577956795B79521
:100D7000F7959E3F08F0B0CF9395880F08F099271C
:100D8000EE0F9795879508950E94A70708F481E0D4
:100D900008950E94DD060C94E2070E94DB0758F0DC
:100DA0000E94D40740F029F45F3F29F00C94CB0750
:100DB00051110C9416080C94D1070E94F30768F3A4
:100DC0009923B1F3552391F3951B550BBB27AA2704
:100DD00062177307840738F09F5F5F4F220F331F3E
:100DE000441FAA1FA9F335D00E2E3AF0E0E832D006
:100DF00091505040E695001CCAF72BD0FE2F29D009
:100E0000660F771F881FBB1F261737074807AB07DA
:100E1000B0E809F0BB0B802DBF01FF2793585F4F4F
:100E20003AF09E3F510578F00C94CB070C941608CD
:100E30005F3FE4F3983ED4F3869577956795B79531
:100E4000F7959F5FC9F7880F911D9695879597F93C
:100E50000895E1E0660F771F881FBB1F62177307B5
:100E60008407BA0720F0621B730B840BBA0BEE1FCA
:100E700088F7E09508950E94FB0788F09F5798F047
:100E8000B92F9927B751B0F0E1F0660F771F881F8F
:100E9000991F1AF0BA95C9F714C0B13091F00E94A9
:100EA0001508B1E008950C941508672F782F88274E
:100EB000B85F39F0B93FCCF3869577956795B395D0
:100EC000D9F73EF490958095709561957F4F8F4F3F
:100ED0009F4F0895E89409C097FB3EF49095809544
:100EE000709561957F4F8F4F9F4F9923A9F0F92FF0
:100EF00096E9BB279395F695879577956795B7956E
:100F0000F111F8CFFAF4BB0F11F460FF1BC06F5F53
:100F10007F4F8F4F9F4F16C0882311F096E911C065
:100F2000772321F09EE8872F762F05C0662371F086
:100F300096E8862F70E060E02AF09A95660F771F9A
:100F4000881FDAF7880F9695879597F90895990F76
:100F50000008550FAA0BE0E8FEEF16161706E80783
:100F6000F907C0F012161306E407F50798F0621BA4
:100F7000730B840B950B39F40A2661F0232B242B79
:100F8000252B21F408950A2609F4A140A6958FEF98
:100F9000811D811D089597F99F6780E870E060E0EA
:100FA00008959FEF80EC089500240A941616170602
:100FB00018060906089500240A941216130614064A
:100FC00005060895092E0394000C11F4882352F0AD
:100FD000BB0F40F4BF2B11F460FF04C06F5F7F4F65
:100FE0008F4F9F4F089557FD9058440F551F59F04C
:100FF0005F3F71F04795880F97FB991F61F09F3F06
:1010000079F087950895121613061406551FF2CF2E
:101010004695F1DF08C0161617061806991FF1CF7E
:1010200086957105610508940895E894BB276627A5
:101030007727CB0197F908950E94A70708F48FEF4F
:1010400008950E9434080C94E2070E94D40738F0F7
:101050000E94DB0720F0952311F00C94CB070C9431
:10106000D10711240C9416080E94F30770F3959F82
:10107000C1F3950F50E0551F629FF001729FBB278F
:10108000F00DB11D639FAA27F00DB11DAA1F649F2B
:101090006627B00DA11D661F829F2227B00DA11DDE
:1010A000621F739FB00DA11D621F839FA00D611D64
:1010B000221F749F3327A00D611D231F849F600D85
:1010C000211D822F762F6A2F11249F5750409AF0AE
:1010D000F1F088234AF0EE0FFF1FBB1F661F771F3A
:1010E000881F91505040A9F79E3F510580F00C9405
:1010F000CB070C9416085F3FE4F3983ED4F3869533
:1011000077956795B795F795E7959F5FC1F7FE2BA4
:10111000880F911D9695879597F908950E94A707C6
:10112000880B990B0895DB018F939F930E94D4083D
:10113000BF91AF91A29F800D911DA39F900DB29F73
:10114000900D11240895A1E21A2EAA1BBB1BFD01CC
:101150000DC0AA1FBB1FEE1FFF1FA217B307E40796
:10116000F50720F0A21BB30BE40BF50B661F771FEE
:10117000881F991F1A9469F76095709580959095CE
:101180009B01AC01BD01CF010895A29FB001B39FA7
:10119000C001A39F700D811D1124911DB29F700D80
:1011A000811D1124911D08950E94C508A59F900DD1
:1011B000B49F900DA49F800D911D11240895EE0FF2
:0E11C000FF1F0590F491E02D0994F894FFCFE5
:1011CE0001000000006F01CF00FC00BC012D010BDF
:1011DE00011F0100000100080020004000800000F7
:1011EE000100040000010008004000000100046E30
:0E11FE00616E00696E66006F7666000D0A0075
:00000001FF
