:100000000C945D000C9485000C9485000C94850084
:100010000C9485000C9485000C9485000C9485004C
:100020000C9485000C9485000C9485000C9485003C
:100030000C9485000C9485000C9485000C9485002C
:100040000C9411030C9485000C94DF020C94B902FB
:100050000C9485000C9485000C9485000C9485000C
:100060000C9485000C9485000000000024002700FB
:100070002A0000000000250028002B0004040404CE
:100080000404040402020202020203030303030342
:10009000010204081020408001020408102001021F
:1000A00004081020000000080002010000030407FB
:1000B00000000000000000005B0311241FBECFEF12
:1000C000D8E0DEBFCDBF11E0A0E0B1E0EEE0F4E1AA
:1000D00002C005900D92AE32B107D9F722E0AEE230
:1000E000B1E001C01D92AC31B207E1F710E0CDE5FF
:1000F000D0E004C02197FE010E94FF09CC35D10752
:10010000C9F70E94F5030C94050A0C94000080E4E2
:1001100080937C0080917A00806480937A00809143
:100120007A0086FDFCCF8091780090917900089547
:10013000E7EAF0E02491E3E9F0E09491EFE7F0E002
:10014000E491EE23C9F0222339F0233001F1A8F421
:10015000213019F1223029F1F0E0EE0FFF1FEE58A7
:10016000FF4FA591B4912FB7F894EC91811126C05F
:1001700090959E239C932FBF08952730A9F0283097
:10018000C9F0243049F7209180002F7D03C02091D1
:1001900080002F7720938000DFCF24B52F7724BDF8
:1001A000DBCF24B52F7DFBCF2091B0002F7720939C
:1001B000B000D2CF2091B0002F7DF9CF9E2BDACFA7
:1001C000AF92BF92CF92DF92EF92FF920F931F9365
:1001D000CF93DF936C017B018B01040F151FEB01A3
:1001E0005E01AE18BF08C017D10759F06991D6015A
:1001F000ED91FC910190F081E02DC6010995892BCC
:1002000079F7C501DF91CF911F910F91FF90EF908A
:10021000DF90CF90BF90AF900895FC01538D448D37
:10022000252F30E0842F90E0821B930B541710F0A1
:10023000CF96089501970895FC01918D828D9817AE
:1002400061F0A28DAE0FBF2FB11D5D968C91928D86
:100250009F5F9F73928F90E008958FEF9FEF0895B7
:10026000FC01918D828D981731F0828DE80FF11D80
:10027000858D90E008958FEF9FEF0895FC01918D9B
:10028000228D892F90E0805C9F4F821B91098F7394
:100290009927089583E391E00E943E0121E0892B94
:1002A00009F420E0822F089580E090E0892B29F066
:1002B0000E944A0181110C9400000895FC01A48D54
:1002C000A80FB92FB11DA35ABF4F2C91848D90E078
:1002D00001968F739927848FA689B7892C93A0895B
:1002E000B1898C91837080648C93938D848D9813E5
:1002F00006C00288F389E02D80818F7D8083089578
:10030000EF92FF920F931F93CF93DF93EC0181E065
:10031000888F9B8D8C8D98131AC0E889F98980810C
:1003200085FF15C09FB7F894EE89FF896083E8893F
:10033000F98980818370806480839FBF81E090E031
:10034000DF91CF911F910F91FF90EF900895F62EBE
:100350000B8D10E00F5F1F4F0F731127E02E8C8D58
:100360008E110CC00FB607FCFACFE889F98980819D
:1003700085FFF5CFCE010E945E01F1CFEB8DEC0F32
:10038000FD2FF11DE35AFF4FF0829FB7F8940B8FBA
:10039000EA89FB8980818062CFCFCF93DF93EC0124
:1003A000888D8823B9F0AA89BB89E889F9898C915D
:1003B00085FD03C0808186FD0DC00FB607FCF7CF19
:1003C0008C9185FFF2CF808185FFEDCFCE010E9419
:1003D0005E01E9CFDF91CF9108953FB7F894809106
:1003E0002F0190913001A0913101B091320126B5D9
:1003F000A89B05C02F3F19F00196A11DB11D3FBF5D
:10040000BA2FA92F982F8827BC01CD01620F711D2B
:10041000811D911D42E0660F771F881F991F4A9525
:10042000D1F70895CF92DF92EF92FF92CF936B01B5
:100430007C01AC019B016EEF7FEF81E090E00E94B8
:10044000B3099B01AC0160E074E284EF90E00E948C
:10045000C309C0E0EC2FF0E0EE0FFF1FE05FFE4F9E
:1004600080819181CF5F82179307A0F3A701960146
:10047000220F331F441F551FEC2FF0E0EE0FFF1F1C
:10048000E05FFE4FA081B1810E94F4099B01AC01A5
:1004900060E074E284EF90E00E94C309309387002B
:1004A0002093860080918100887FC770C82BC093FD
:1004B000810081E0CF91FF90EF90DF90CF90089581
:1004C0008F929F92AF92BF92CF92DF92EF92FF9264
:1004D0000F931F93CF936B017C01AEEFB1E0AC01A2
:1004E0009B010E94F4099B01AC0160E074E284EF7F
:1004F00090E00E94C309C901C0E0CC0CDD1CEE1CD9
:10050000FF1C812C44E2942E44EFA42EB12CCF5F2B
:10051000EC2FF0E0EE0FFF1FE050FF4F0081118144
:1005200008171907A0F3D801A70196010E94F40942
:100530009B01AC01C501B4010E94C309C8012F3F52
:10054000310509F020F72093B3008091B100887F36
:10055000C770C82BC093B10081E0CF911F910F915C
:10056000FF90EF90DF90CF90BF90AF909F908F90D3
:1005700008951F920F920FB60F9211242F933F935D
:100580004F935F936F937F938F939F93AF93BF939B
:10059000EF93FF9383E391E00E945E01FF91EF915F
:1005A000BF91AF919F918F917F916F915F914F918B
:1005B0003F912F910F900FBE0F901F9018951F9293
:1005C0000F920FB60F9211242F938F939F93EF9357
:1005D000FF93E0914301F09144018081E091490152
:1005E000F0914A0182FD1BC0908180914C018F5F88
:1005F0008F7320914D01821741F0E0914C01F0E0A2
:10060000ED5CFE4F958F80934C01FF91EF919F9190
:100610008F912F910F900FBE0F901F901895808192
:10062000F4CF1F920F920FB60F9211242F933F9386
:100630008F939F93AF93BF938091D0019091D101FD
:10064000A091D201B091D30130912E0123E0230F6C
:100650002D3758F50196A11DB11D20932E018093D1
:10066000D0019093D101A093D201B093D301809196
:100670002F0190913001A0913101B091320101968A
:10068000A11DB11D80932F0190933001A0933101E2
:10069000B0933201BF91AF919F918F913F912F9174
:1006A0000F900FBE0F901F90189526E8230F02960B
:1006B000A11DB11DD2CFE3E3F1E01382128288EED7
:1006C00093E0A0E0B0E084839583A683B78380E2C3
:1006D00091E09183808385EC90E09587848784EC1A
:1006E00090E09787868780EC90E0918B808B81ECFF
:1006F00090E0938B828B82EC90E0958B848B86ECE0
:1007000090E0978B868B118E128E138E148EE0EEF6
:10071000F1E088ED91E0978F868F8CED91E0958FD9
:10072000848F84ED91E091A380A312AE12AA13AA44
:1007300014AA15AA80E090E0AFE7B3E486AB97ABCC
:10074000A0AFB1AF84E690E0A0E0B0E086A797A7A5
:10075000A0ABB1AB118E108E81E090E0938F828FB1
:1007600083AF80E090E0A0E0B0E480839183A28337
:10077000B38340E050E060EA70E4448355836683CD
:10078000778340E050E060E87FE3408751876287ED
:10079000738784879587A687B78780E090E0A0E07D
:1007A000BFE3808B918BA28BB38B80E090E0A0E2C3
:1007B000B1E4848B958BA68BB78B2FB7F89480917F
:1007C000D0019091D101A091D201B091D3012FBF5E
:1007D00046A557A560A971A9841B950BA60BB70B5D
:1007E00082A393A3A4A3B5A30895CF93DF93CDB71A
:1007F000DEB72E970FB6F894DEBF0FBECDBF78944C
:1008000084B5826084BD84B5816084BD85B5826015
:1008100085BD85B5816085BD80916E0081608093C6
:100820006E0010928100809181008260809381002F
:10083000809181008160809381008091800081603F
:10084000809380008091B10084608093B10080919A
:10085000B00081608093B00080917A0084608093C2
:100860007A0080917A00826080937A0080917A0089
:10087000816080937A0080917A00806880937A000A
:100880001092C100E0914301F091440182E0808325
:10089000E0913F01F09140011082E0914101F0911F
:1008A00042018FEC808310924B01E0914701F0915F
:1008B000480186E08083E0914501F0914601808106
:1008C00080618083E0914501F091460180818860DC
:1008D0008083E0914501F0914601808180688083AA
:1008E000E0914501F091460180818F7D8083809168
:1008F00080008C7F8093800080918100877E806162
:100900008093810064EF71E080E090E00E94120229
:100910008091B0008C7F81608093B0008091B100A5
:1009200088608093B10064EF71E080E090E00E9405
:100930006002E7EAF0E084919DEF980F923008F0B2
:10094000A7C060E573EC80E090E00E9412020E9474
:100950008700BC01990F880B990B0E949108609346
:10096000DC017093DD018093DE019093DF018DED5A
:1009700094E2A6E7B1E48093D4019093D501A093CB
:10098000D601B093D70160910E0270910F02809151
:100990001002909111020E948F089B01AC0160E04F
:1009A00070E080E89FE30E94E7076B017C01AC01E7
:1009B0009B016091F0017091F1018091F2019091A1
:1009C000F3010E9446096093F0017093F101809356
:1009D000F2019093F301A70196016091F4017091E7
:1009E000F5018091F6019091F7010E94E70760936D
:1009F000F4017093F5018093F6019093F70181E083
:100A000090E0A0E0B0E080930E0290930F02A093DC
:100A10001002B093110280911A02811153C0E0912B
:100A2000FE01F091FF01C080D180E280F380C0928E
:100A30000602D0920702E0920802F0920902E091C9
:100A4000FC01F091FD0180819181A281B3818093AD
:100A50000A0290930B02A0930C02B0930D028090B7
:100A6000160290901702A0901802B0901902A501EA
:100A70009401C701B6010E94410918169CF48092A6
:100A8000060290920702A0920802B09209021AC0D0
:100A9000883009F05CCF60E573EC80E090E00E9464
:100AA000600255CF8090120290901302A090140221
:100AB000B0901502A5019401C701B6010E94E2079A
:100AC00087FDDDCF81E080931A020E948700BC0180
:100AD000990F880B990B0E9491086093DC01709329
:100AE000DD018093DE019093DF0180911A0288235B
:100AF00009F42FC18FB7F8942091D0013091D10122
:100B00004091D2015091D30129873A874B875C8766
:100B10008FBF8091020290910302A0910402B091D4
:100B2000050249855A856B857C85481B590B6A0BE4
:100B30007B0B80910E0290910F02A0911002B09158
:100B40001102481759076A077B0708F402C1E091B0
:100B5000FC01F091FD014080518062807380E09142
:100B60000002F0910102A3019201608171818281F2
:100B700093810E9475076B017C0120910A023091DC
:100B80000B0240910C0250910D02C301B2010E9470
:100B9000750769837A838B839C832091F001309160
:100BA000F1014091F2015091F301C701B6010E9499
:100BB00046092091060230910702409108025091A7
:100BC00009020E9476074B015C0180920602909216
:100BD0000702A0920802B092090230901B02311065
:100BE0001CC02091EC013091ED014091EE0150913B
:100BF000EF0169817A818B819C810E9446099B016A
:100C0000AC01C501B4010E947507609306027093A0
:100C10000702809308029093090280910602909146
:100C20000702A0910802B09109028D839E83AF83D1
:100C3000B8870091160210911702909118029E87B2
:100C4000A0911902AD879801492F5A2F6D817E819D
:100C50008F8198850E94410918160CF0C3C0C80105
:100C6000AE85BD858093060290930702A09308028B
:100C7000B0930902332009F4D0C02091EC013091E7
:100C8000ED014091EE015091EF01C701B6010E94C4
:100C900046096B017C012091F4013091F5014091EE
:100CA000F6015091F70169817A818B819C810E94C4
:100CB00046099B01AC016091060270910702809188
:100CC0000802909109020E947507A70196010E94EF
:100CD00076076B017C019B01AC01B8018E859D8577
:100CE0000E94E20787FD16C00091120210911302C4
:100CF000B0911402BE87E0911502ED8798014B2F49
:100D00005E2FB601C7010E94E20787FD03C086017E
:100D1000EE86FD86E091FE01F091FF01C801AE85EF
:100D2000BD8580839183A283B38340920A0250924F
:100D30000B0260920C0270920D0229853A854B8558
:100D40005C85209302023093030240930402509387
:100D500005026091D8017091D9018091DA019091DA
:100D6000DB010E94590863567D4EE3E9F0E02491CF
:100D7000EFE7F0E08491882399F090E0880F991FC5
:100D8000FC01E859FF4FA591B491FC01EE58FF4FCB
:100D9000859194918FB7F8949C91292B2C938FBFB8
:100DA00061157105F1F580E00E9498000E94ED0147
:100DB0006B017C010E94ED016C197D098E099F0970
:100DC000683E734081059105A8F320E030E0232BB5
:100DD00009F47BCE0E944A01882309F476CE0E9452
:100DE000000073CE8090120290901302A090140223
:100DF000B0901502A50194016D817E818F81988547
:100E00000E94E20787FF36CF809206029092070287
:100E1000A0920802B09209022DCFC12CD12C7601EC
:100E20003ACF6F3F760711F481E0BECFE7EAF0E0FA
:100E30008491833081F138F48230B9F060387105E3
:100E400008F4B1CFF1CF843009F441C08830B1F754
:100E50008091B00080628093B000A091B300B0E0B8
:100E6000E4EBF0E0FA83E98309C084B5806284BDD5
:100E7000A7B5B0E028E430E03A8329839B010E94C3
:100E8000E5092FEF3FEF40E050E00E94C309E98100
:100E9000FA8120838BCF80918000806880938000CE
:100EA000A0918600B091870048E850E05A834983BA
:100EB0009B010E94E5092FEF3FEF40E050E00E94C8
:100EC000C309A981BA8111963C932E936FCF80916B
:100ED0008000806280938000A0918600B09187009E
:100EE0008AE890E09A838983E3CF5058BB27AA27EA
:100EF0000E948D070C9407090E94F90838F00E949F
:100F0000000920F039F49F3F19F426F40C94F608F8
:100F10000EF4E095E7FB0C94F008E92F0E94180905
:100F200058F3BA17620773078407950720F079F41E
:100F3000A6F50C943A090EF4E0950B2EBA2FA02DCD
:100F40000B01B90190010C01CA01A0011124FF2776
:100F5000591B99F0593F50F4503E68F11A16F04071
:100F6000A22F232F342F4427585FF3CF4695379570
:100F70002795A795F0405395C9F77EF41F16BA0B35
:100F8000620B730B840BBAF09150A1F0FF0FBB1FE3
:100F9000661F771F881FC2F70EC0BA0F621F731F2C
:100FA000841F48F4879577956795B795F7959E3F89
:100FB00008F0B0CF9395880F08F09927EE0F97951A
:100FC000879508950E94CC0808F481E008950E9456
:100FD000FB070C9407090E94000958F00E94F908C9
:100FE00040F029F45F3F29F00C94F00851110C9463
:100FF0003B090C94F6080E94180968F39923B1F391
:10100000552391F3951B550BBB27AA27621773072E
:10101000840738F09F5F5F4F220F331F441FAA1FC2
:10102000A9F335D00E2E3AF0E0E832D0915050407E
:10103000E695001CCAF72BD0FE2F29D0660F771F2C
:10104000881FBB1F261737074807AB07B0E809F012
:10105000BB0B802DBF01FF2793585F4F3AF09E3F97
:10106000510578F00C94F0080C943B095F3FE4F3D1
:10107000983ED4F3869577956795B795F7959F5FDA
:10108000C9F7880F911D9695879597F90895E1E026
:10109000660F771F881FBB1F621773078407BA0785
:1010A00020F0621B730B840BBA0BEE1F88F7E095E0
:1010B00008950E9460086894B1110C943B0908954A
:1010C0000E94200988F09F5798F0B92F9927B751AF
:1010D000B0F0E1F0660F771F881F991F1AF0BA95DC
:1010E000C9F714C0B13091F00E943A09B1E00895F7
:1010F0000C943A09672F782F8827B85F39F0B93FE9
:10110000CCF3869577956795B395D9F73EF490958E
:101110008095709561957F4F8F4F9F4F0895E8940C
:1011200009C097FB3EF490958095709561957F4F2F
:101130008F4F9F4F9923A9F0F92F96E9BB279395DD
:10114000F695879577956795B795F111F8CFFAF4ED
:10115000BB0F11F460FF1BC06F5F7F4F8F4F9F4F1E
:1011600016C0882311F096E911C0772321F09EE87C
:10117000872F762F05C0662371F096E8862F70E0E2
:1011800060E02AF09A95660F771F881FDAF7880FBC
:101190009695879597F90895990F0008550FAA0B12
:1011A000E0E8FEEF16161706E807F907C0F012167A
:1011B0001306E407F50798F0621B730B840B950B7D
:1011C00039F40A2661F0232B242B252B21F40895D2
:1011D0000A2609F4A140A6958FEF811D811D08956F
:1011E00097F99F6780E870E060E008959FEF80ECDA
:1011F000089500240A94161617061806090608957D
:1012000000240A9412161306140605060895092EE2
:101210000394000C11F4882352F0BB0F40F4BF2B51
:1012200011F460FF04C06F5F7F4F8F4F9F4F089591
:1012300057FD9058440F551F59F05F3F71F0479587
:10124000880F97FB991F61F09F3F79F0879508956C
:10125000121613061406551FF2CF4695F1DF08C08B
:10126000161617061806991FF1CF869571056105A8
:1012700008940895E894BB2766277727CB0197F950
:1012800008950E94CC0808F48FEF08950E94590930
:101290000C9407090E94F90838F00E94000920F018
:1012A000952311F00C94F0080C94F60811240C947A
:1012B0003B090E94180970F3959FC1F3950F50E008
:1012C000551F629FF001729FBB27F00DB11D639FF8
:1012D000AA27F00DB11DAA1F649F6627B00DA11D9E
:1012E000661F829F2227B00DA11D621F739FB00D44
:1012F000A11D621F839FA00D611D221F749F3327B4
:10130000A00D611D231F849F600D211D822F762F4C
:101310006A2F11249F5750409AF0F1F088234AF029
:10132000EE0FFF1FBB1F661F771F881F9150504095
:10133000A9F79E3F510580F00C94F0080C943B09EE
:101340005F3FE4F3983ED4F3869577956795B7951C
:10135000F795E7959F5FC1F7FE2B880F911D969536
:10136000879597F90895DB018F939F930E94F40965
:10137000BF91AF91A29F800D911DA39F900DB29F31
:10138000900D11240895A1E21A2EAA1BBB1BFD018A
:101390000DC0AA1FBB1FEE1FFF1FA217B307E40754
:1013A000F50720F0A21BB30BE40BF50B661F771FAC
:1013B000881F991F1A9469F760957095809590958C
:1013C0009B01AC01BD01CF010895A29FB001B39F65
:1013D000C001A39F700D811D1124911DB29F700D3E
:1013E000811D1124911D08950E94E509A59F900D6E
:1013F000B49F900DA49F800D911D11240895EE0FB0
:0E140000FF1F0590F491E02D0994F894FFCFA2
:10140E0000000100080020004000800000010004E0
:10141E000000010008004000000100040000000070
:0E142E008001E0000D01CD013E011C013001E6
:00000001FF
